:1000000003C100009AC600001DC100001BC1000012
:1000100019C1000017C1000015C1000013C1000084
:1000200011C100000FC100000DC10000FDC400009F
:1000300009C1000007C1000005C1000003C10000A4
:1000400001C10000FFC0000067C60000FBC0000047
:100050000C943108F7C00000F5C00000F3C00000A8
:10006000F1C00000EFC00000EDC00000EBC00000D8
:10007000E9C00000E7C00000E5C00000E3C00000E8
:10008000DEC60000DFC00000DDC0000059011E0216
:100090001E021E021E021E021E021E021E021E0260
:1000A0001E0290019801A101A901B401BE01C8017D
:1000B0001E021E02D201DB01E401EA011E021E0241
:1000C0001E021E021E021E02F201FA0102020B02B1
:1000D00014024E414E494E495459494E46CDCCCC5E
:1000E0003D0AD7233C17B7D13877CC2B329595E60C
:1000F000241FB14F0A000020410000C84200401CEC
:100100004620BCBE4CCA1B0E5AAEC59D7400407A38
:1001100010F35A00A0724E18090010A5D4E8000090
:10012000E87648170000E40B54020000CA9A3B002E
:100130000000E1F505000080969800000040420FA5
:10014000000000A08601000000102700000000E869
:1001500003000000006400000000000A000000002E
:10016000000100000000002C76D888DC674F0823CF
:10017000DFC1DFAE59E1B1B796E5E3E453C63AE635
:1001800051997696E8E6C28426EB898C9B62ED4015
:100190007C6FFCEFBC9C9F40F2BAA56FA5F4900564
:1001A0005A2AF75C936B6CF9676DC11BFCE0E40D98
:1001B00047FEF520E6B500D0ED902E03009435778C
:1001C000050080841E080000204E0A000000C80CB4
:1001D000333333330F986E12831141EF8D2114891D
:1001E0003BE65516CFFEE6DB18D1844B381BF77C77
:1001F0001D901DA4BBE424203284725E228100C9BC
:10020000F124ECA1E53D270011241FBECFEFD0E47F
:10021000DEBFCDBF14E0A0E0B1E0E0E6F1E200E037
:100220000BBF02C007900D92AE32B107D9F724E0A0
:10023000AEE2B4E001C01D92A33DB207E1F724D3C2
:100240000C94AE10DDCE806480937C0085EC8093AE
:100250007A0080917A0086FDFCCF10927A0080911E
:100260007800909179000895CF92DF92EF92FF92FB
:100270000F931F93CF93DF931F92CDB7DEB76C011F
:10028000019602D7082F84E0C80ED11CC6010E9437
:10029000EC0B7C01C601E9820E94E90B10E0498168
:1002A0000332110508F0CAC0F801EA5BFF4F0C9455
:1002B000BE09FF24E1E0EE16F104D1F04CF4EF2882
:1002C00061F510925604109258041092590421C0FE
:1002D00082E0E816F104A1F0E3E0EE16F104E9F49F
:1002E00083E0809356048AE0809358048CE30FC027
:1002F00081E08093560482E08093580485E007C033
:1003000082E08093560484E0809358048FE08093C9
:100310005904A6D01092570494C088E291E090C08E
:100320004C3318F46E2D82E007C08CE391E088C056
:100330004C3320F46E2D83E035D483C080E591E00A
:100340007FC0483118F46E2D84E0F6CF84E691E04A
:1003500077C0C6010E94EC0B873018F4682F86E046
:10036000EBCF88E791E06CC08FEF8E0D8F3118F4E2
:100370006E2D85E0E1CF8EE891E062C08FEF8E0DAB
:100380008C3018F46E2D87E0D7CF80EA91E058C00A
:1003900080EF8E0D833518F46E2D88E0CDCF84EB81
:1003A00091E04EC0609388047093890480938A041E
:1003B00090938B0441C060938C0470938D04809360
:1003C0008E0490938F0438C0FF24F0929D04E09235
:1003D0009C0432C04830A8F5FF24F092B304E092A8
:1003E000B2042AC0483068F5FF24F092AF04E092CE
:1003F000AE0422C0483028F5FF24F092B104E09208
:10040000B0041AC06093B4047093B5048093B6042A
:100410009093B70411C06093B8047093B9048093AB
:10042000BA049093BB0408C06093BC047093BD04ED
:100430008093BE049093BF0413D003C089EC91E075
:10044000FED58091CE049091CF0413D30F90DF910D
:10045000CF911F910F91FF90EF90DF90CF901EC62C
:100460006091560480E090E00E94900C60915804E6
:1004700070E081E090E00E94AA0C6091590483E052
:1004800090E00E94900C4091880450918904609102
:100490008A0470918B0480E290E00E94A20C40914B
:1004A0008C0450918D0460918E0470918F0484E2CD
:1004B00090E00E94A20C6091AE0480E390E00E9464
:1004C000900C6091B00481E390E00E94900C409108
:1004D000B4045091B5046091B6047091B70480E4FF
:1004E00090E00E94A20C4091B8045091B904609130
:1004F000BA047091BB0485E490E00E94A20C409184
:10050000BC045091BD046091BE047091BF048AE4A4
:1005100090E00E94A20C60919C0470919D0480E583
:1005200090E00E94AA0C6091B20483E590E00C94E4
:10053000900C80E090E00E947E0C8093560481E055
:1005400090E00E948B0C8093580483E090E00E941E
:100550007E0C8093590480E290E00E94860C6093A8
:1005600088047093890480938A0490938B0484E2B6
:1005700090E00E94860C60938C0470938D048093AD
:100580008E0490938F0480E390E00E947E0C90E0B4
:100590009093AF048093AE0481E390E00E947E0CC0
:1005A00090E09093B1048093B00480E490E00E94C6
:1005B000860C6093B4047093B5048093B604909352
:1005C000B70485E490E00E94860C6093B8047093B1
:1005D000B9048093BA049093BB048AE490E00E942B
:1005E000860C6093BC047093BD048093BE0490930A
:1005F000BF0480E590E00E948B0C90939D04809353
:100600009C0483E590E00E947E0C90E09093B304FC
:100610008093B204089510924E0480912F04882391
:1006200019F010925004089583E0809350040895C7
:1006300069ED71E084E494E00E94140C892B11F4BC
:100640002DD50FC080914404843241F48091470439
:100650008D3321F484E494E007DE03C08CED91E057
:10066000EED4109240041092440410922F0484E0BF
:10067000809350040895CF938091C204813069F42F
:10068000CAD280915704811103C08AE594E093D2C5
:100690008AE594E09ED31092C204C091C104C13097
:1006A00091F41092C1048AE594E0D3D2809157046A
:1006B0008F5F8093570490915804891304C010925F
:1006C0005704C0934E0480914E04813011F482E0AF
:1006D00001C084E080935004CF9108950F931F933D
:1006E000CF93DF93CDB7DEB7EE970FB6F894DEBFAA
:1006F0000FBECDBF8091C0044AE0BE016D5C7F4F4C
:1007000090E00E94240CBC01CE0101960E941D0CB9
:100710006EEE71E0CE0101960E94090C60913004EA
:100720007091310480913204909133042AE0AE013B
:100730004D5C5F4F0E942E0CBC01CE0101960E94C1
:10074000090C6EEE71E0CE0101960E94090C6091D9
:100750005E0470915F0480916004909161048E0149
:100760000D5C1F4F21E040E00E94C90BBC01CE018F
:1007700001960E94090C6EEE71E0CE0101960E9476
:10078000090C4AE0B80180916604909167040E94C8
:10079000240CBC01CE0101960E94090C6EEE71E0A2
:1007A000CE0101960E94090C60916C0470916D0459
:1007B00080916E0490916F0420E040E0EAD7BC0184
:1007C000CE0101960E94090C6EEE71E0CE010196F9
:1007D0000E94090C609168047091690480916A0418
:1007E00090916B0420E040E0D4D7BC01CE0101968B
:1007F0000E94090C6BEE71E0CE0101960E94090C7B
:10080000CE0101961CD480912F04882319F01092F8
:10081000500409C08091C204882311F081E001C016
:1008200084E080935004EE960FB6F894DEBF0FBEBE
:10083000CDBFDF91CF911F910F91089580912F042B
:10084000882319F01092500408958091C2048130D9
:1008500021F08091C104813011F481E001C084E075
:1008600080935004089580912F04882319F01092EA
:10087000500408958091C204882311F081E001C0E2
:1008800084E080935004089510924F0485E0809393
:100890005104809350041092530410925204109209
:1008A0005704109255041092540484E08093C004BD
:1008B00040DE8AE594E07FD183EC94E09093CF040E
:1008C0008093CE041092410410922F041092C2041F
:1008D0001092C1041092CC0410924E041092D004D5
:1008E00010923F0481E08093CD0410923604109260
:1008F00037041092380480933C0480933D048FE0C9
:1009000080933E041092300410923104109232040D
:100910001092330478D010922E041092D0041092CA
:1009200040048FEC90E090933504809334046ED3B0
:1009300073D27894D1E080914F04843620F0D09324
:10094000CC0410924F0480914104813089F4E091ED
:100950005004F0E0EE0FFF1FE050FF4F0190F081D8
:10096000E02D099510924104809150048093510428
:10097000C091D004C13031F580912E04E091400443
:10098000F0E0EC5BFB4F808353D39091400481E017
:10099000890F8093400480912E04883021F4915077
:1009A000909340040DC08D3059F48BEE91E047D305
:1009B000E0914004F0E0ED5BFB4F1082C0932F0408
:1009C0001092D0044091CC04413009F0B4CF809112
:1009D00052049091530401969093530480935204CF
:1009E00020915604222361F02091590430E08217AF
:1009F000930731F44093C2041092530410925204AE
:100A00001092CC0498CFE0E7F0E080818160808391
:100A10001092B20085E08093B100E6EBF0E08081B7
:100A20008062808381E008951F920F920FB60F922B
:100A300011248F939F93AF93BF9380913004909133
:100A40003104A0913204B09133040196A11DB11D6F
:100A50008093300490933104A0933204B093330414
:100A6000BF91AF919F918F910F900FBE0F901F90EC
:100A700018950F931F93CF93DF93CDB7DEB72797CA
:100A80000FB6F894DEBF0FBECDBF8C01FE013196CC
:100A9000CE0108969F011192E817F907E1F747E0A8
:100AA00062E082EA4CD24C81442309F467C0398168
:100AB000232F2077269526952695922F990F990F0B
:100AC000920F3F70930FD8019C933A81232F207788
:100AD000269526952695922F990F990F920F3F7084
:100AE000930F11969C9311973B81232F207326958A
:100AF00026952695922F990F990F920F3F70930F7D
:100B000012969C9312972D81277030E0F901EE0F19
:100B1000FF1FE20FF31FE05FFE4F908113969C933F
:100B20001397918114969C93149715961C92159780
:100B3000242F2073269526952695922F990F990F8D
:100B4000920F4F70940F16969C9316972E8124FB4C
:100B5000332730F9330F932F990F990F930F2F707D
:100B6000920F17969C939F81292F22952F709F702B
:100B7000BAE02B9F900D1124F801908727960FB6AD
:100B8000F894DEBF0FBECDBFDF91CF911F910F91C3
:100B900008956AE0C5D3292F30E1839FC001112455
:100BA000822B0895CF93C82F862FF3DF482F6C2F09
:100BB00082EACF918EC1FC011082118212821382CF
:100BC0001482158216821782108611861286138669
:100BD0001586148616861786108A118A128A138A39
:100BE000148A158A168E178E10A211A2168A178AD9
:100BF000108E118E128E138E148E158E12A213A2C9
:100C000014A215A216A217A210A611A612A613A628
:100C100014A615A6089510925A0410925B0410921F
:100C20005C0410925D04E9E6F0E0808182608083DC
:100C3000E89A16BC85B5856085BDEEE6F0E080815A
:100C40008160808386B590E0909343048093420452
:100C50000895CF92DF92EF92FF922DEB37E346E8B3
:100C600050E460915A0470915B0480915C0490910F
:100C70005D0412D46B017C0160935A0470935B0491
:100C800080935C0490935D0420E030E0A90100D4DF
:100C9000882309F43CC02091880430918904409154
:100CA0008A0450918B04C701B60110D520918C04A1
:100CB00030918D0440918E0450918F0485D36B0147
:100CC0007C0160935A0470935B0480935C0490935E
:100CD0005D046091580470E080E090E047D49B018F
:100CE000AC01C701B601D8D39B01AC0160915E0491
:100CF00070915F04809160049091610465D360936A
:100D00005E0470935F048093600490936104FF908D
:100D1000EF90DF90CF9008951F920F920FB60F9231
:100D200011248F931DBA15BC81E08093C1048F916B
:100D30000F900FBE0F901F9018951F920F920FB635
:100D40000F9211240BB60F922F933F934F935F9303
:100D50006F937F938F939F93AF93BF93EF93FF9383
:100D600086B590E02091420430914304821B930B9E
:100D70008B339140D8F020E030E040E85FE36091B1
:100D80005A0470915B0480915C0490915D041CD3C3
:100D900060935A0470935B0480935C0490935D04A9
:100DA00086B590E09093430480934204FF91EF91C5
:100DB000BF91AF919F918F917F916F915F914F9173
:100DC0003F912F910F900BBE0F900FBE0F901F9071
:100DD0001895CF93DF93EC018091B20434DA27E6C3
:100DE00031E0DC01D1D22FE433E040E050E0A4D286
:100DF00080919C0490919D04280F391F411D511D25
:100E0000CA01B90128E631E040E050E095D27D8783
:100E10006C87DF91CF91089581E792E090939900DC
:100E200080939800E1E7F0E08081826080831092F7
:100E30009000E1E9F0E080818C60808308951F924A
:100E40000F920FB60F9211240BB60F928F93EF9360
:100E5000FF9381E080934104EFE4F4E080818F5FB1
:100E60008083FF91EF918F910F900BBE0F900FBE7B
:100E70000F901F90189584EA8093BC008091BC006D
:100E800087FFFCCF089584EA8093BC008091BC006A
:100E900087FFFCCF08958093BB0084E88093BC005B
:100EA0008091BC0087FFFCCF089584EC8093BC0048
:100EB0008091BC0087FFFCCF8091BB00089584E83F
:100EC0008093BC008091BC0087FFFCCF8091BB0069
:100ED00008950F931F93CF93DF931F92CDB7DEB783
:100EE000162F042F8983C7DF9091B900987F8981DD
:100EF0009830C9F4D0DF9091B900987F9831A9F467
:100F0000812FC9DF1091B900187F183281F4802F2A
:100F1000C2DF8091B900887F883251F484E98093E0
:100F2000BC0010E005C018E003C018E101C019E1E1
:100F3000812F0F90DF91CF911F910F910895DF9234
:100F4000EF92FF920F931F93CF93DF93D82FF62E3C
:100F5000C42F890190DF9091B900987F983009F0F3
:100F600040C08D2F98DF9091B900987F983109F09B
:100F70003AC08F2D90DF9091B900987F9832A9F5F3
:100F800082DF9091B900987F903189F581E08D0FD3
:100F900082DF8091B900887F803459F5D12CD0E070
:100FA00021978D2D90E08C179D076CF47801E80E49
:100FB000F91E7BDFF70180838091B900887F80353F
:100FC000D1F4D394EECFC00FD11F79DF8883809105
:100FD000B900887F883589F484E98093BC0080E07B
:100FE0000DC088E00BC088E109C088E207C080E13D
:100FF00005C080E403C080E501C088E5DF91CF91A2
:101000001F910F91FF90EF90DF900895809134042D
:10101000909135049093C5008093C40082E0809342
:10102000C00088E98093C10086E38093C2000895E0
:101030009091C00095FFFCCF8093C60008951F9348
:10104000CF93DF93EC0110E0FE01E10FF11D8081F1
:10105000882319F0EDDF1F5FF7CFDF91CF911F914C
:1010600008951F920F920FB60F9211248F938091C3
:10107000C60080932E0481E08093D0048F910F905E
:101080000FBE0F901F901895FC01818180539081B5
:1010900090532AE0929F800D112408950F931F937F
:1010A000CF93DF93CDB7DEB72A970FB6F894DEBFA4
:1010B0000FBECDBF80EF91E0C2DF82E092E0BFDFE4
:1010C0008DE092E0BCDF809156044AE0BE016F5F84
:1010D0007F4F90E0B9D3B3DF82E192E0B0DF83E5E8
:1010E00092E0ADDF8CE592E0AADFE091CE04F091D2
:1010F000CF0480814AE0BE016F5F7F4F90E0A4D3B0
:101100009EDF81E692E09BDF8CE692E098DFE09143
:10111000CE04F091CF0481814AE0BE016F5F7F4F22
:1011200090E092D38CDF81E792E089DF8CE792E058
:1011300086DFE091CE04F091CF0482814AE0BE01C7
:101140006F5F7F4F90E080D37ADF81E892E077DFB6
:101150008AE892E074DF8091CE049091CF040396E8
:101160006EDF8FE892E06BDF85EA92E068DFE09166
:10117000CE04F091CF0486814AE0BE016F5F7F4FBD
:1011800090E062D35CDF8AEA92E059DF87EB92E07D
:1011900056DFE091CE04F091CF0487814AE0BE0192
:1011A0006F5F7F4F90E050D34ADF8CEB92E047DFD8
:1011B0008AEC92E044DFE091CE04F091CF04808588
:1011C0004AE0BE016F5F7F4F90E03ED338DF8FEC87
:1011D00092E035DF81EE92E032DF8DEE92E02FDF9C
:1011E000609188047091890480918A0490918B04A5
:1011F0008E010F5F1F4F23E040E0CBD220DF82EF54
:1012000092E01DDF83E093E01ADF60918C0470911F
:101210008D0480918E0490918F0423E040E0B9D238
:101220000EDF88E093E00BDF89E193E008DF4AE01E
:10123000B80180919C0490919D0406D300DF8EE15B
:1012400093E0FDDE86E493E0FADE4AE0B8018091A7
:10125000B2049091B304F8D2F2DE8BE493E0EFDEB7
:1012600087E593E0ECDE86E693E0E9DE4AE0B8014C
:101270008091AE049091AF04E7D2E1DE8BE693E07B
:10128000DEDE8DE793E0DBDE4AE0B8018091B0045A
:101290009091B104D9D2D3DE82E893E0D0DE84E924
:1012A00093E0CDDE6091B4047091B5048091B604F2
:1012B0009091B70423E040E06CD2C1DE89E993E06D
:1012C000BEDE81EC93E0BBDE6091B8047091B9049E
:1012D0008091BA049091BB0423E040E05AD2AFDE83
:1012E00086EC93E0ACDE8EEE93E0A9DE6091BC0468
:1012F0007091BD048091BE049091BF0423E040E052
:1013000048D29DDE83EF93E09ADE2A960FB6F894DA
:10131000DEBF0FBECDBFDF91CF911F910F9108951A
:10132000991B79E004C0991F961708F0961B881F37
:101330007A95C9F780950895A1E21A2EAA1BBB1BC6
:10134000FD010DC0AA1FBB1FEE1FFF1FA217B30791
:10135000E407F50720F0A21BB30BE40BF50B661FA7
:10136000771F881F991F1A9469F76095709580956B
:1013700090959B01AC01BD01CF010895EE0FFF1FB9
:101380000590F491E02D09940FD0B7FF0895821BCA
:10139000930B089509D0A59F900DB49F900DA49F25
:1013A000800D911D11240895A29FB001B39FC0012B
:1013B000A39F700D811D1124911DB29F700D811D81
:1013C0001124911D08955058BB27AA270ED044C15F
:1013D00035D130F03AD120F031F49F3F11F41EF4B2
:1013E0002AC10EF4E095E7FB20C1E92F46D180F336
:1013F000BA17620773078407950718F071F49EF512
:101400005EC10EF4E0950B2EBA2FA02D0B01B90191
:1014100090010C01CA01A0011124FF27591B99F06A
:10142000593F50F4503E68F11A16F040A22F232F76
:10143000342F4427585FF3CF469537952795A795C6
:10144000F0405395C9F77EF41F16BA0B620B730B6D
:10145000840BBAF09150A1F0FF0FBB1F661F771FDE
:10146000881FC2F70EC0BA0F621F731F841F48F493
:10147000879577956795B795F7959E3F08F0B3CF19
:101480009395880F08F09927EE0F97958795089503
:10149000A8D008F481E008950CD0DEC0D6D040F08A
:1014A000CDD030F021F45F3F19F0BFC0511108C119
:1014B000C2C0E3D098F39923C9F35523B1F3951B28
:1014C000550BBB27AA2762177307840738F09F5F65
:1014D0005F4F220F331F441FAA1FA9F333D00E2ED4
:1014E0003AF0E0E830D091505040E695001CCAF741
:1014F00029D0FE2F27D0660F771F881FBB1F261706
:1015000037074807AB07B0E809F0BB0B802DBF01D8
:10151000FF2793585F4F2AF09E3F510568F085C022
:10152000CFC05F3FECF3983EDCF3869577956795E7
:10153000B795F7959F5FC9F7880F911D9695879589
:1015400097F90895E1E0660F771F881FBB1F6217A8
:1015500073078407BA0720F0621B730B840BBA0B66
:10156000EE1F88F7E0950895E89409C097FB3EF4D4
:1015700090958095709561957F4F8F4F9F4F9923E0
:10158000A9F0F92F96E9BB279395F695879577955E
:101590006795B795F111F8CFFAF4BB0F11F460FF1E
:1015A0001BC06F5F7F4F8F4F9F4F16C0882311F076
:1015B00096E911C0772321F09EE8872F762F05C08A
:1015C000662371F096E8862F70E060E02AF09A9525
:1015D000660F771F881FDAF7880F9695879597F91A
:1015E0000895990F0008550FAA0BE0E8FEEF1616B4
:1015F0001706E807F907C0F012161306E407F50707
:1016000098F0621B730B840B950B39F40A2661F07A
:10161000232B242B252B21F408950A2609F4A1401D
:10162000A6958FEF811D811D089597F99F6780E82A
:1016300070E060E008959FEF80EC089500240A9424
:101640001616170618060906089500240A9412169D
:101650001306140605060895092E0394000C11F4D0
:10166000882352F0BB0F40F4BF2B11F460FF04C07D
:101670006F5F7F4F8F4F9F4F089557FD9058440FD6
:10168000551F59F05F3F71F04795880F97FB991FE1
:1016900061F09F3F79F0879508951216130614069E
:1016A000551FF2CF4695F1DF08C01616170618062B
:1016B000991FF1CF86957105610508940895E89406
:1016C000BB2766277727CB0197F908950BD0C4CFA6
:1016D000B5DF28F0BADF18F0952309F0A6CFABCF1D
:1016E0001124EECFCADFA0F3959FD1F3950F50E000
:1016F000551F629FF001729FBB27F00DB11D639FC4
:10170000AA27F00DB11DAA1F649F6627B00DA11D69
:10171000661F829F2227B00DA11D621F739FB00D0F
:10172000A11D621F839FA00D611D221F749F33277F
:10173000A00D611D231F849F600D211D822F762F18
:101740006A2F11249F5750408AF0E1F088234AF015
:10175000EE0FFF1FBB1F661F771F881F9150504061
:10176000A9F79E3F510570F060CFAACF5F3FECF321
:10177000983EDCF3869577956795B795F795E7954D
:101780009F5FC1F7FE2B880F911D9695879597F95E
:101790000895EF920F931F93CF93DF93E80147FFD4
:1017A00002C034E101C034E0E42FFF27E7FDF095EB
:1017B000F7FF03C0F195E195F109E32E022F2E2FDB
:1017C000AE01CCD0CE01DF91CF911F910F91EF9060
:1017D0000895662777273FC2FC0188279927E89458
:1017E00021912032E9F3293010F02E30C8F32B324A
:1017F00039F02D3231F4689403C03ED0820F911D30
:10180000219120532A30C8F31EF4909581959F4F63
:101810000895FB01DC010D900020E9F7119701907C
:101820000D920020E1F70895FB01DC018D910190FC
:1018300080190110D9F3990B0895FB01DC01019087
:101840000D920020E1F70895BB274A3031F4992327
:1018500022F4BDE2909581959F4F38C0BB272A3076
:1018600051F4992342F4BDE290958095709561956D
:101870007F4F8F4F9F4F09C07AE0979F902D879F92
:10188000802D910D11240895BB27FA01A62F621710
:10189000710581059105330B30FB66F0AA27660FB1
:1018A000771F881F991FAA1FA21710F0A21B63950C
:1018B0003850A9F7A05DAA3308F0A95DA19336F7C7
:1018C000B111B1931082CA0126C4BB27FB01552771
:1018D000AA27880F991FAA1FA41710F0A41B83958D
:1018E0005051B9F7A05DAA3308F0A95DA193009704
:1018F00079F7B111B1931192CB010DC4F999FECFD3
:1019000092BD81BDF89A992780B50895A6E1B0E00F
:1019100044E050E012C4A8E1B0E042E050E00DC461
:10192000262FF999FECF92BD81BDF89A019700B498
:10193000021639F01FBA20BD0FB6F894FA9AF99A38
:101940000FBE08950396272FECDFEADF252FE9DF8E
:10195000242FE7CF0196272FE4DFE2CF6F927F920B
:101960009F92AF92BF92CF92DF92EF92FF920F932E
:101970001F93CF93DF93CDB7DEB729970FB6F894B7
:10198000DEBF0FBECDBF6A01B22E102F0C3320F484
:10199000FF24F394F00E02C04CE3F42E0F2D27E049
:1019A000AE014F5F5F4FBFD27981272F2970213061
:1019B00031F0E1FC06C0E0FC06C060E005C06DE26D
:1019C00003C06BE201C060E2AE2DA07173FF36C0B0
:1019D000662311F084E001C083E08B1510F4B81A7F
:1019E00001C0B12CA1110BC0F6018B2D90E2882310
:1019F00019F091938150FBCFCB0CD11CB12C6623F5
:101A000031F0F601608396012F5F3F4F6901C601F7
:101A10000396E2FE05C02EE4F601208331E404C003
:101A20002EE6F601208331E631832283FC012B2D43
:101A300030E22223F1F131932150FBCF72FF40C0FD
:101A4000662311F084E001C083E08B1510F4B81A0E
:101A500001C0B12CA1110BC0F6018B2D90E288239F
:101A600019F091938150FBCFCB0CD11CB12C662384
:101A700031F0F601608396012F5F3F4F6901C60187
:101A80000396E2FE07C029E4F60120832EE42183B9
:101A900026E406C029E6F60120832EE6218326E609
:101AA0002283FC012B2D30E2222319F031932150A7
:101AB000FBCFFC01EB0DF11D10828EEF9FEFB7C045
:101AC000B1E0611101C0B0E04B2F50E018161906CB
:101AD00024F49C012F5F3F4F02C021E030E0240F2F
:101AE000351F112329F0412F50E04F5F5F4F02C097
:101AF00040E050E0420F531F2B2D30E042175307B8
:101B000014F4B41A01C0B12C2E2D287159F4F60129
:101B10002B2D30E2222319F031932150FBCFCB0C37
:101B2000D11CB12CBB2331F0F601608396012F5FED
:101B30003F4F6901A1110BC0F6012B2D30E3222389
:101B400019F031932150FBCFCB0CD11CB12CF80EE6
:101B50000A81372F3071A32E74FF03C0013309F4BB
:101B6000FA941F142CF42F2D293018F028E001C00E
:101B700021E0682F392F97FF02C060E030E0462F48
:101B8000532F612C712C3EE2932EBC01621B710914
:101B90009B01DC01A41BB50BE1E0F0E0EC0FFD1FA5
:101BA000AE0FBF1FE12EF12CF194E194F1084F3FED
:101BB000FFEF5F0731F4F6019082B6016F5F7F4F50
:101BC0006B01841795074CF02417350734F4BD01D9
:101BD000660D771DFB01118101C010E341505109D1
:101BE000FFEF6F1A7F0AB6016F5F7F4F4E155F05DB
:101BF00024F0F60110836B01DACF4817590739F446
:101C0000063320F4053319F4A11001C011E3F601E5
:101C10001083FB018B2D90E2882319F09193815062
:101C2000FBCFFB01EB0DF11D108280E090E02996C7
:101C30000FB6F894DEBF0FBECDBFDF91CF911F91DD
:101C40000F91FF90EF90DF90CF90BF90AF909F905B
:101C50007F906F9008958F929F92AF92BF92CF9294
:101C6000DF92EF92FF920F931F93CF93DF938B013D
:101C70006115710521F0DB018C9311969C93EC01A9
:101C80005E01BFEFAB1ABB0A7501C8808C2D90E0D6
:101C900022D2892B11F0E501F3CFEDE2CE1208C07C
:101CA0007E01F2E0EF0EF11CC980DD24D39409C05F
:101CB0002BE2C21205C07E0142E0E40EF11CC98095
:101CC000D12CE701219743E050E06AED70E0CE01AE
:101CD0000AD2892BB9F4239645E050E065ED70E017
:101CE000CE0101D2892B09F425960115110519F0B1
:101CF000D801CD93DC93D11000C160E070E080E8A2
:101D00009FE704C143E050E062ED70E0CE01EBD10B
:101D1000892B59F40115110509F4F4C0B2E0EB0E5A
:101D2000F11CF801F182E082EDC0F70160E070E0A3
:101D3000CB01C0E0D0E07F01A0EDAA2EAC0C29E0E1
:101D40002A1528F14D2D4260B42E2D2D2870D2FE7B
:101D500004C0211124C0219622C021112197A5E0A1
:101D6000B0E09B01AC0116DB660F771F881F991F3F
:101D70006A0D711D811D911D6839A9E97A078A07CD
:101D8000A9E19A0760F0BD2DB660BB2E08C02EEF0A
:101D9000A2120AC0D3FC50C04D2D4860B42E31961B
:101DA000D701CC90DB2CC7CF2C2D2F7D253409F00B
:101DB00043C0A081AD3241F4BD2DB061DB2E7F0167
:101DC00022E0E20EF11C0CC07F01AB3231F04FEF8C
:101DD000E41AF40A21E030E006C0A2E0EA0EF11CA9
:101DE000A18122E030E0A053AA3018F0E21AF30AF1
:101DF00023C0F70120E030E02038BCE03B075CF472
:101E0000A901440F551F440F551F240F351F220FE2
:101E1000331F2A0F311DAF014F5F5F4F7A01A08141
:101E2000A053AA3010F4FA01E7CFD4FE03C03195D5
:101E300021953109C20FD31FD1FE09C0011511052B
:101E400031F0E1E0EE1AF108D801ED92FC928CDB62
:101E50002D2D2370233019F04B015C0106C04B017E
:101E60005C01B7FAB094B7F8B09420E030E0A90173
:101E7000C501B4010DDB882309F43CC0D7FF06C0BF
:101E8000D195C195D10901EF10E002C009E011E040
:101E90006801B8E1CB1AD10890E2E92EF12CCE15F9
:101EA000DF056CF0F8012591359145915491C501FC
:101EB000B4010CDC4B015C01CE19DF09F0CF0450FA
:101EC0001109F594E7940C151D0549F78A2D880F23
:101ED0008B2D881F8F3F41F020E030E0A901C50124
:101EE000B401D6DA811106C082E290E09093D20468
:101EF0008093D104C501B40109C060E070E080E8BE
:101F00009FEF04C060E070E080EC9FE7DF91CF912D
:101F10001F910F91FF90EF90DF90CF90BF90AF9007
:101F20009F908F900895283008F027E03327DA013A
:101F3000990F311D87FD916000966105710539F497
:101F400032602E5F3D9330E32A95E1F708959F3F7D
:101F500030F080387105610509F03C5F3C5F3D93CE
:101F6000913008F08068911DDF93CF931F930F93FA
:101F7000FF92EF92192F987F9695E92F9695969557
:101F8000E90FFF27E959FE4F99273327EE24FF2455
:101F9000A701E70105900894079428F4360FE71E7F
:101FA000F81E491F511D660F771F881F991F069441
:101FB000A1F70590079428F4E70EF81E491F561F55
:101FC000C11D770F881F991F661F0694A1F7059002
:101FD000079428F4F80E491F561FC71FD11D880FFC
:101FE000991F661F771F0694A1F70590079420F4A8
:101FF000490F561FC71FD81F990F661F771F881FCD
:102000000694A9F784911095177041F0D695C7955D
:1020100057954795F794E7941A95C1F7EDE0F1E0ED
:1020200068941590159135916591959105907FE291
:102030007395E118F10A430B560BC90BD009C0F791
:10204000E10CF11E431F561FC91FD01D7EF47033D3
:1020500011F48A95E6CFE894015030F0080F0AF4A5
:102060000027021708F4202F2395022F7A3328F037
:1020700079E37D932A95E9F710C07D932A9589F637
:10208000069497956795379517951794E118F10A77
:10209000430B560BC90BD00998F023957E9173958D
:1020A0007A3308F070E37C932013B8F77E91706167
:1020B0007D9330F0839571E37D9370E32A95E1F78A
:1020C0001124EF90FF900F911F91CF91DF919927ED
:1020D00087FD9095089591113EC0803219F0895086
:1020E0008550D0F70895FB01DC014150504088F045
:1020F0008D9181341CF08B350CF4805E65916134D8
:102100001CF06B350CF4605E861B611171F3990B4A
:102110000895881BFCCFDC01FC01672F71917723A8
:10212000E1F7329704C07C916D9370836291AE1792
:10213000BF07C8F30895DC01CB01FC01F999FECF7C
:1021400006C0F2BDE1BDF89A319600B40D9241503F
:102150005040B8F70895992788270895F894FFCF3D
:1021600018033B030B036E031E043304000000003E
:102170005375004D6F005475005765005468004654
:1021800072005361006572004E6F74206120636FAE
:1021900072726563742076616C7565006D75737419
:1021A0002062653A20303D3C736563733C363000F5
:1021B0006D7573742062653A20303D3C6D696E73B5
:1021C0003C3630006D7573742062653A20303D3CBA
:1021D000686F75723C3234006D7573742062653AB5
:1021E00020303D3C7765656B6461793C37006D75E7
:1021F00073742062653A20303C6461793C3332006C
:102200006D7573742062653A20303C6D6F6E746832
:102210003C3133006D7573742062653A2031363D70
:102220003C796561723C39390042616420726571A4
:102230007565737420210D0A002424004E6F7420EC
:1022400061207265717565737420210D0A0020008C
:10225000436F6E66696775726174696F6E203A0DBF
:102260000A004C6F67676572203A0D0A002430300F
:102270003D0009303A206E6F74206D656173757290
:10228000652C313A20313073206176657261676563
:102290002C323A316D696E20617665726167652C0A
:1022A000333A31306D696E20617665726167652EF3
:1022B0000D0A0054696D65203A0D0A002431313D44
:1022C00000097365636F6E64730D0A002431323D3B
:1022D00000096D696E757465730D0A002431333D14
:1022E0000009686F7572730D0A002431343D0009CE
:1022F000303A73752C313A6D6F2C2E2E2E2C363AC7
:1023000073610D0A002431353D00096D6F6E7468EC
:10231000206461790D0A002431363D000979656138
:1023200072206D6F6E74680D0A002431373D00090C
:102330007965617220283136202D203939290D0A1E
:102340000053656E736F7273203A0D0A00243230A9
:102350003D0009616E656D6F3120666163746F7257
:102360000D0A002432313D0009616E656D6F312028
:102370006F66667365740D0A002432323D0009648D
:102380006567726565206F6666736574206D757329
:1023900074206265747765656E203020616E6420FC
:1023A0003335390D0A002432333D000976616E65FC
:1023B0002070696E0D0A00414320776174746D6569
:1023C0007465720D0A002433303D000941632076A4
:1023D0006F6C746167652070696E0D0A002433317B
:1023E0003D000941632063757272656E74207069E7
:1023F0006E0D0A002433323D0009414320766F6C94
:102400007461676520636F656666696369656E748C
:102410002C202063616C69622073746570310D0A31
:10242000002433333D000941432063757272656EA9
:102430007420636F656666696369656E742C20201D
:1024400063616C69622073746570320D0A00243315
:10245000343D000970686173652063616C69627264
:102460006174696F6E206265747765656E203020D7
:10247000616E6420322C206E65617220312C2063E5
:0E248000616C69622073746570330D0A000090
:00000001FF
