:1000000047C000006CC000006AC0000068C000006B
:1000100066C0000064C0000062C0000060C0000054
:100020005EC000005CC000005AC000006BC0000051
:1000300056C0000054C0000052C0000050C0000074
:100040004EC000004CC000004AC0000048C0000084
:10005000BBC0000044C0000042C0000040C000001F
:100060003EC000003CC000003AC0000038C00000A4
:10007000BEC0000034C0000032C0000030C000002C
:100080002EC000002CC000002AC00000A700B30052
:1000900011241FBECFEFD0E4DEBFCDBF11E0A0E042
:1000A000B1E0E4EDF8E000E00BBF02C007900D9274
:1000B000A83AB107D9F721E0A8EAB1E001C01D9242
:1000C000AE3BB207E1F710E0C7E4D0E003C02197F0
:1000D000FE01BED2C634D107D1F73AD2EFC390CFDA
:1000E000C8D0E0E7F0E08081816080831092B200A8
:1000F00085E08093B100E6EBF0E080818062808350
:100100005D9A08951F920F920FB60F9211248F934C
:100110009F93AF93BF938091B2019091B301A0914F
:10012000B401B091B5010196A11DB11D8093B2013A
:100130009093B301A093B401B093B501BF91AF9177
:100140009F918F910F900FBE0F901F90189540E1D7
:1001500050E060E08DEA91E00ED040E150E061E0D7
:1001600088EA91E008C088EA91E003D08DEA91E046
:1001700000C0089569C2FC018AE091E09183808308
:10018000628354834383662319F0613079F00895C4
:100190005093C5004093C40082E08093C00088E97A
:1001A0008093C10086E08093C20008955093CD00F3
:1001B0004093CC0082E08093C80088E98093C90016
:1001C00086E08093CA0008951F920F920FB60F9297
:1001D00011248F938091C6008093B90181E08093B0
:1001E000B8018F910F900FBE0F901F9018951F921E
:1001F0000F920FB60F9211248F938091CE008093AF
:10020000B70181E08093B6018F910F900FBE0F90E0
:100210001F901895FC018281882319F0813041F0EC
:1002200008958091C00085FFFCCF6093C6000895BB
:100230008091C80085FFFCCF6093CE000895EF92B7
:10024000FF920F931F93CF937C018B01C0E0F801C5
:10025000EC0FF11D6081662321F0C701DBDFCF5F6A
:10026000F6CFCF911F910F91FF90EF9008950895D1
:10027000EBC1FC0182E191E0918380838AE082837B
:100280008EE183838AB1806F8AB91BB808959F92EB
:10029000AF92BF92CF92DF92EF92FF920F931F9394
:1002A000CF93DF93CDB7DEB76C01ADB6BEB6FC0120
:1002B0008381082F10E022814DB75EB7289F401937
:1002C000510911240FB6F8945EBF0FBE4DBF8DB714
:1002D0009EB701967C01EDB7FEB71182800F911F8A
:1002E00030E0582F492F2130310561F0800F911FE8
:1002F000E52FF42FE817F90711F01192FBCF2150E9
:100300003109EFCF90E08091B601882369F08091A8
:10031000B701853449F4F701E90FF11D80839F5F30
:100320001092B60181E001C080E0F5E0FA95F1F7A6
:100330000000882341F380E0F6012281821770F5E6
:10034000809FA001819F500D11242091B60122238E
:1003500081F03091B701F701E90FF11DE40FF51FAE
:10036000308321E03D3009F420E09F5F1092B60118
:1003700001C021E035E03A95F1F700002111E5CF09
:10038000809F9001819F300D1124F701E90FF11D2D
:10039000E20FF31F10828E5F90E0CECF912CF6011A
:1003A0008281981660F4909EB001919E700D112488
:1003B0006E0D7F1D8DEA91E042DF9394F0CF0FB672
:1003C000F894BEBE0FBEADBEDF91CF911F910F91CD
:1003D000FF90EF90DF90CF90BF90AF909F900895E7
:1003E0008F929F92AF92BF92CF92DF92EF92FF9245
:1003F0000F931F93CF93DF93CDB7DEB74C01ADB60C
:10040000BEB6FC018381C82ED12C2DB73EB79DE02E
:10041000899F2019310911240FB6F8943EBF0FBEF1
:100420002DBF0DB71EB70F5F1F4FEDB7FEB711827F
:10043000C8018C0D9D1D2CE0E22EF12C382F292FA8
:100440008C0D9D1DE32FF22FE817F90711F0119283
:10045000FBCFF1E0EF1AF10889F788EA91E0EFDECF
:1004600090E08091B601882369F08091B7018734CC
:1004700049F4F801E90FF11D80839F5F1092B601E6
:1004800081E001C080E025E02A95F1F70000882393
:1004900041F3EC9CB001ED9C700DFC9C700D11249F
:1004A0008091B6018823D1F0492F50E08091B701A7
:1004B000F801E40FF51FE60FF71F80838D3049F038
:1004C000F401238130E02250310981E042175307C3
:1004D0000CF080E09F5F1092B60101C081E0F5E072
:1004E000FA95F1F700008111DBCFEC9C9001ED9CB7
:1004F000300DFC9C300D1124F801E90FF11DE20FC5
:10050000F31F108222E0E20EF11C90E03EE0E316C1
:10051000F10409F0BECF8DE0F82EB8018DEA91E02C
:100520008EDEFA940C0D1D1DF110F7CF0FB6F89466
:10053000BEBE0FBEADBEDF91CF911F910F91FF9058
:10054000EF90DF90CF90BF90AF909F908F900895E5
:10055000CF93DF9300D000D0CDB7DEB711B887EFCF
:1005600084B98FEF8AB91BB8CE010196B9DD7894B2
:1005700066E171E08DEA91E062DE1092B2011092C4
:10058000B3011092B4011092B5016FE371E08DEAEE
:1005900091E055DE8BB180658BB9CE01019677DE97
:1005A00067E571E08DEA91E04ADE2F9A6AE671E034
:1005B0008DEA91E044DE8AE090E0A0E0B0E040E027
:1005C00050E0BA01C090B201D090B301E090B40104
:1005D000F090B5014C155D056E057F0561F025B104
:1005E000222381F12F98C090B201D090B301E09006
:1005F000B401F090B501EFE9FFE03197F1F700C0E9
:1006000000004091B2015091B3016091B40170912A
:10061000B501481759076A077B0719F0B701A6010A
:10062000D1CF61EA71E0CE010196DADE8091B201AC
:100630009091B301A091B401B091B5010A96A11DAA
:10064000B11DECCF2F9ACFCF009709F09FC008952E
:10065000EE0FFF1F0024001C0BBE0790F691E02D4B
:100660000994CF93DF938230910510F482E090E0FB
:10067000E091BC01F091BD0120E030E0C0E0D0E0AD
:10068000309711F14081518148175907C0F0481740
:10069000590761F482819381209719F09B838A83A3
:1006A0002BC09093BD018093BC0126C0211531055C
:1006B00019F04217530718F49A01BE01DF01EF0148
:1006C0000280F381E02DDCCF2115310509F1281BD3
:1006D000390B2430310590F412968D919C9113972B
:1006E0006115710521F0FB019383828304C090930F
:1006F000BD018093BC01FD01329644C0FD01E20FB3
:10070000F31F81939193225031092D933C933AC06A
:100710002091BA013091BB01232B41F420910201B9
:10072000309103013093BB012093BA012091000165
:10073000309101012115310541F42DB73EB74091AB
:10074000040150910501241B350BE091BA01F09191
:10075000BB01E217F307A0F42E1B3F0B2817390744
:1007600078F0AC014E5F5F4F2417350748F04E0F0D
:100770005F1F5093BB014093BA018193919302C0D4
:10078000E0E0F0E0CF01DF91CF9108950F931F9348
:10079000CF93DF93009709F48CC0FC01329713824A
:1007A00012820091BC011091BD010115110581F467
:1007B00020813181820F931F2091BA013091BB01BA
:1007C0002817390779F5F093BB01E093BA0171C09E
:1007D000D80140E050E0AE17BF0750F412962D91BB
:1007E0003C911397AD012115310509F1D901F3CFE2
:1007F0009D01DA013383228360817181860F971F07
:100800008217930769F4EC0128813981260F371F7D
:100810002E5F3F4F318320838A819B819383828324
:10082000452B29F4F093BD01E093BC0142C013961F
:10083000FC93EE931297ED01499159919E01240F7B
:10084000351FE217F30771F480819181840F951FA2
:10085000029611969C938E938281938113969C931A
:100860008E931297E0E0F0E0D80112968D919C9162
:100870001397009719F0F8018C01F6CF8D919C9198
:1008800098012E5F3F4F820F931F2091BA01309144
:10089000BB012817390769F4309729F41092BD017C
:1008A0001092BC0102C0138212821093BB0100930C
:1008B000BA01DF91CF911F910F91089510E0C7E425
:1008C000D0E003C0FE01C4DE2196C834D107D1F7C1
:0408D000F894FFCFCA
:1008D4000000BE01200000000000B900BA000000C2
:1008E400000037013801496E697469616C697A6185
:1008F40074696F6E2057696E646C6F6767657220E8
:100904007465737420302E302E340D0A0D0A00578E
:1009140069466920696E697469616C697A61746990
:100924006F6E203A0D0A000D0A6C6F6F70696E6766
:100934002074657374203A0D0A000D0A202D20548A
:10094400686520677265656E206C6564206E6561FC
:10095400722074686520757362206D6F64756C65B0
:100964002C20697320626C696E6B696E673F0D0A97
:0809740000776966693A310061
:00000001FF
