:1000000047C0000071C000006FC000006DC000005C
:100010006BC0000069C0000067C0000065C0000040
:1000200063C0000061C000005FC000006EC000003F
:100030005BC0000059C0000057C0000055C0000060
:1000400053C0000051C000004FC000004DC0000070
:10005000ACC0000049C0000047C0000045C000001F
:1000600043C0000041C000003FC000003DC0000090
:100070003BC0000039C0000037C0000035C00000A0
:1000800033C0000031C000002FC00000AD00AA0046
:1000900011241FBECFEFD0E4DEBFCDBF11E0A0E042
:1000A000B1E0E6E3F5E000E00BBF02C007900D927F
:1000B000A233B107D9F721E0A2E3B1E001C01D925C
:1000C000AF33B207E1F710E0CEE8D0E000E005C0C2
:1000D00022970109FE010BBFF2D0CC38D10780E096
:1000E0000807B1F798D016C28BCFE0E7F0E0808127
:1000F000816080831092B20085E08093B100E6EBCE
:10010000F0E080818062808308951F920F920FB685
:100110000F9211248F939F93AF93BF9380913501DA
:1001200090913601A0913701B09138010196A11D3F
:10013000B11D8093350190933601A0933701B093A0
:100140003801BF91AF919F918F910F900FBE0F908B
:100150001F90189582E391E006C042E250E060E013
:1001600082E391E00CC02AE031E0FC01318320837E
:1001700008952AE031E0FC01318320839CC02AE00D
:1001800031E0FC013183208361110EC01282509353
:10019000C5004093C40082E08093C00088E980934A
:1001A000C10086E38093C20008951F920F920FB69C
:1001B0000F9211248F938091C60080933A0181E0C1
:1001C000809339018F910F900FBE0F901F9018955B
:1001D000FC018281811106C08091C00085FFFCCFA7
:1001E0006093C6000895FF920F931F93CF93DF9300
:1001F000EC018B01F12CF801EF0DF11D60816623FC
:1002000021F0CE01E5DFF394F6CFDF91CF911F917E
:100210000F91FF900895CF93DF931F92CDB7DEB774
:100220008FEF81B984B912B880EF85B9CE010196FC
:100230005CDF78946EE071E082E391E0D4DF1092AD
:100240003501109236011092370110923801C12CFD
:10025000D12C76011FEF8091350190913601A0914C
:100260003701B0913801C816D906EA06FB0671F0CD
:1002700085B18F3F11F415B801C015B9C090350193
:10028000D0903601E0903701F09038012FEF8DEEDD
:1002900092E0215080409040E1F700C00000809142
:1002A00039018130C1F660913A0182E391E090DF3B
:1002B00010923901D0CF009709F09DC008950790A2
:1002C000F691E02D0994CF93DF938230910510F4DD
:1002D00082E090E0E0913D01F0913E0120E030E0CD
:1002E000A0E0B0E0309739F14081518148175907BB
:1002F000B8F04817590771F482819381109729F05B
:1003000013969C938E9312972CC090933E018093EA
:100310003D0127C02115310531F04217530718F070
:10032000A901DB0101C0EF019A01BD01DF010280DB
:10033000F381E02DD7CF21153105F9F0281B390BBA
:100340002430310580F48A819B816115710521F08B
:10035000FB019383828304C090933E0180933D010F
:10036000FE01329644C0FE01E20FF31F8193919388
:1003700022503109398328833AC020913B013091C2
:100380003C01232B41F42091020130910301309371
:100390003C0120933B012091000130910101211586
:1003A000310541F42DB73EB740910401509105014C
:1003B000241B350BE0913B01F0913C01E217F30760
:1003C000A0F42E1B3F0B2817390778F0AC014E5FC5
:1003D0005F4F2417350748F04E0F5F1F50933C01C5
:1003E00040933B018193919302C0E0E0F0E0CF01A4
:1003F000DF91CF910895CF93DF93009709F487C0E1
:10040000FC01329713821282C0913D01D0913E01CE
:10041000209781F420813181280F391F80913B0181
:1004200090913C018217930779F5F0933C01E0939A
:100430003B016DC0DE0120E030E0AE17BF0750F495
:1004400012964D915C9113979D014115510509F14B
:10045000DA01F3CFB383A28340815181840F951FCA
:100460008A179B0771F48D919C911197840F951FAA
:1004700002969183808312968D919C91139793831A
:1004800082832115310529F4F0933E01E0933D016B
:100490003EC0D9011396FC93EE9312974D915D9156
:1004A000A40FB51FEA17FB0779F480819181840FAF
:1004B000951F0296D90111969C938E938281938108
:1004C00013969C938E931297E0E0F0E08A819B81D3
:1004D000009719F0FE01EC01F9CFCE0102962881B8
:1004E0003981820F931F20913B0130913C012817E5
:1004F000390769F4309729F410923E0110923D01BA
:1005000002C013821282D0933C01C0933B01DF9161
:10051000CF91089510E0CEE8D0E000E005C022972A
:100520000109FE010BBFCBDEC039D10780E008070F
:06053000B1F7F894FFCFC3
:1005360000003F01200000000000B300B900496E32
:10054600697469616C697A6174696F6E2057696E46
:10055600646C6F6767657220646576302E312E3065
:02056600000093
:00000001FF
